S01100006D643662746E7061642E7372656393
S11300000C9434000C943E000C943E000C943E007E
S11300100C943E000C943E000C943E000C943E0064
S11300200C943E000C943E000C943E000C943E0054
S11300300C943E000C943E000C943E000C943E0044
S11300400C943E000C943E000C943E000C943E0034
S11300500C943E000C943E000C943E000C943E0024
S11300600C943E000C943E0011241FBECFEFD4E04C
S1130070DEBFCDBF0E9440000C94A0000C94000091
S113008089B1837089B98BB18C6F8BB983B1807C52
S113009083B985B18F6385B914BC85E085BD87B10B
S11300A08F6387B98FE388B95098589A519A5998B1
S11300B04899FECF4A9903C092E38EE302C093E3CA
S11300C08FE34B9902C08D7F9D7F4C9B8B7F4D9B13
S11300D0877F4E9B9F7E4F9B8F7E189B8F7D199BA6
S11300E09F7D1A9902C027E301C02FE31B9B2B7F3E
S11300F01C9B2D7F1D9B2E7F489BFECF88B916BC71
S11301004899FECF98B9489BFECF599A36B53231FB
S1130110A8F788B94899FECF392F307338B9489B6E
S1130120FECF28B94899FECF292F2F6028B9489BC4
S1130130FECF88B916BC59984899FECF98B9BACF62
S1070140F894FFCF5D
S9030000FC
